{
  "_format": "hh-sol-artifact-1",
  "contractName": "EduQuest",
  "sourceName": "contracts/LearnFi.sol",
  "abi": [
    {
      "inputs": [
        {
          "internalType": "uint256",
          "name": "initialSupply",
          "type": "uint256"
        }
      ],
      "stateMutability": "nonpayable",
      "type": "constructor"
    },
    {
      "inputs": [
        {
          "internalType": "address",
          "name": "spender",
          "type": "address"
        },
        {
          "internalType": "uint256",
          "name": "allowance",
          "type": "uint256"
        },
        {
          "internalType": "uint256",
          "name": "needed",
          "type": "uint256"
        }
      ],
      "name": "ERC20InsufficientAllowance",
      "type": "error"
    },
    {
      "inputs": [
        {
          "internalType": "address",
          "name": "sender",
          "type": "address"
        },
        {
          "internalType": "uint256",
          "name": "balance",
          "type": "uint256"
        },
        {
          "internalType": "uint256",
          "name": "needed",
          "type": "uint256"
        }
      ],
      "name": "ERC20InsufficientBalance",
      "type": "error"
    },
    {
      "inputs": [
        {
          "internalType": "address",
          "name": "approver",
          "type": "address"
        }
      ],
      "name": "ERC20InvalidApprover",
      "type": "error"
    },
    {
      "inputs": [
        {
          "internalType": "address",
          "name": "receiver",
          "type": "address"
        }
      ],
      "name": "ERC20InvalidReceiver",
      "type": "error"
    },
    {
      "inputs": [
        {
          "internalType": "address",
          "name": "sender",
          "type": "address"
        }
      ],
      "name": "ERC20InvalidSender",
      "type": "error"
    },
    {
      "inputs": [
        {
          "internalType": "address",
          "name": "spender",
          "type": "address"
        }
      ],
      "name": "ERC20InvalidSpender",
      "type": "error"
    },
    {
      "anonymous": false,
      "inputs": [
        {
          "indexed": true,
          "internalType": "address",
          "name": "owner",
          "type": "address"
        },
        {
          "indexed": true,
          "internalType": "address",
          "name": "spender",
          "type": "address"
        },
        {
          "indexed": false,
          "internalType": "uint256",
          "name": "value",
          "type": "uint256"
        }
      ],
      "name": "Approval",
      "type": "event"
    },
    {
      "anonymous": false,
      "inputs": [
        {
          "indexed": true,
          "internalType": "address",
          "name": "user",
          "type": "address"
        },
        {
          "indexed": false,
          "internalType": "uint256",
          "name": "amount",
          "type": "uint256"
        },
        {
          "indexed": false,
          "internalType": "string",
          "name": "action",
          "type": "string"
        }
      ],
      "name": "TokensClaimed",
      "type": "event"
    },
    {
      "anonymous": false,
      "inputs": [
        {
          "indexed": true,
          "internalType": "address",
          "name": "from",
          "type": "address"
        },
        {
          "indexed": true,
          "internalType": "address",
          "name": "to",
          "type": "address"
        },
        {
          "indexed": false,
          "internalType": "uint256",
          "name": "value",
          "type": "uint256"
        }
      ],
      "name": "Transfer",
      "type": "event"
    },
    {
      "inputs": [
        {
          "internalType": "address",
          "name": "owner",
          "type": "address"
        },
        {
          "internalType": "address",
          "name": "spender",
          "type": "address"
        }
      ],
      "name": "allowance",
      "outputs": [
        {
          "internalType": "uint256",
          "name": "",
          "type": "uint256"
        }
      ],
      "stateMutability": "view",
      "type": "function"
    },
    {
      "inputs": [
        {
          "internalType": "address",
          "name": "spender",
          "type": "address"
        },
        {
          "internalType": "uint256",
          "name": "value",
          "type": "uint256"
        }
      ],
      "name": "approve",
      "outputs": [
        {
          "internalType": "bool",
          "name": "",
          "type": "bool"
        }
      ],
      "stateMutability": "nonpayable",
      "type": "function"
    },
    {
      "inputs": [
        {
          "internalType": "address",
          "name": "account",
          "type": "address"
        }
      ],
      "name": "balanceOf",
      "outputs": [
        {
          "internalType": "uint256",
          "name": "",
          "type": "uint256"
        }
      ],
      "stateMutability": "view",
      "type": "function"
    },
    {
      "inputs": [
        {
          "internalType": "address",
          "name": "_account",
          "type": "address"
        }
      ],
      "name": "checkBalance",
      "outputs": [
        {
          "internalType": "uint256",
          "name": "",
          "type": "uint256"
        }
      ],
      "stateMutability": "view",
      "type": "function"
    },
    {
      "inputs": [
        {
          "internalType": "address",
          "name": "_recipient",
          "type": "address"
        },
        {
          "internalType": "uint256",
          "name": "score",
          "type": "uint256"
        }
      ],
      "name": "claimTokensForQuiz",
      "outputs": [],
      "stateMutability": "nonpayable",
      "type": "function"
    },
    {
      "inputs": [
        {
          "internalType": "address",
          "name": "_recipient",
          "type": "address"
        }
      ],
      "name": "claimTokensForVideo",
      "outputs": [],
      "stateMutability": "nonpayable",
      "type": "function"
    },
    {
      "inputs": [],
      "name": "decimals",
      "outputs": [
        {
          "internalType": "uint8",
          "name": "",
          "type": "uint8"
        }
      ],
      "stateMutability": "view",
      "type": "function"
    },
    {
      "inputs": [],
      "name": "name",
      "outputs": [
        {
          "internalType": "string",
          "name": "",
          "type": "string"
        }
      ],
      "stateMutability": "view",
      "type": "function"
    },
    {
      "inputs": [],
      "name": "owner",
      "outputs": [
        {
          "internalType": "address",
          "name": "",
          "type": "address"
        }
      ],
      "stateMutability": "view",
      "type": "function"
    },
    {
      "inputs": [
        {
          "internalType": "address",
          "name": "_recipient",
          "type": "address"
        },
        {
          "internalType": "uint256",
          "name": "_amount",
          "type": "uint256"
        },
        {
          "internalType": "string",
          "name": "_action",
          "type": "string"
        }
      ],
      "name": "setReward",
      "outputs": [],
      "stateMutability": "nonpayable",
      "type": "function"
    },
    {
      "inputs": [],
      "name": "symbol",
      "outputs": [
        {
          "internalType": "string",
          "name": "",
          "type": "string"
        }
      ],
      "stateMutability": "view",
      "type": "function"
    },
    {
      "inputs": [],
      "name": "totalSupply",
      "outputs": [
        {
          "internalType": "uint256",
          "name": "",
          "type": "uint256"
        }
      ],
      "stateMutability": "view",
      "type": "function"
    },
    {
      "inputs": [
        {
          "internalType": "address",
          "name": "to",
          "type": "address"
        },
        {
          "internalType": "uint256",
          "name": "value",
          "type": "uint256"
        }
      ],
      "name": "transfer",
      "outputs": [
        {
          "internalType": "bool",
          "name": "",
          "type": "bool"
        }
      ],
      "stateMutability": "nonpayable",
      "type": "function"
    },
    {
      "inputs": [
        {
          "internalType": "address",
          "name": "from",
          "type": "address"
        },
        {
          "internalType": "address",
          "name": "to",
          "type": "address"
        },
        {
          "internalType": "uint256",
          "name": "value",
          "type": "uint256"
        }
      ],
      "name": "transferFrom",
      "outputs": [
        {
          "internalType": "bool",
          "name": "",
          "type": "bool"
        }
      ],
      "stateMutability": "nonpayable",
      "type": "function"
    }
  ],
  "bytecode": "0x60806040523480156200001157600080fd5b506040516200219038038062002190833981810160405281019062000037919062000475565b6040518060400160405280600881526020017f456475546f6b656e0000000000000000000000000000000000000000000000008152506040518060400160405280600381526020017f45445500000000000000000000000000000000000000000000000000000000008152508160039081620000b4919062000717565b508060049081620000c6919062000717565b50505033600560006101000a81548173ffffffffffffffffffffffffffffffffffffffff021916908373ffffffffffffffffffffffffffffffffffffffff16021790555062000168600560009054906101000a900473ffffffffffffffffffffffffffffffffffffffff16620001416200016f60201b60201c565b600a6200014f91906200098e565b836200015c9190620009df565b6200017860201b60201c565b5062000b32565b60006012905090565b600073ffffffffffffffffffffffffffffffffffffffff168273ffffffffffffffffffffffffffffffffffffffff1603620001ed5760006040517fec442f05000000000000000000000000000000000000000000000000000000008152600401620001e4919062000a6f565b60405180910390fd5b62000201600083836200020560201b60201c565b5050565b600073ffffffffffffffffffffffffffffffffffffffff168373ffffffffffffffffffffffffffffffffffffffff16036200025b5780600260008282546200024e919062000a8c565b9250508190555062000331565b60008060008573ffffffffffffffffffffffffffffffffffffffff1673ffffffffffffffffffffffffffffffffffffffff16815260200190815260200160002054905081811015620002ea578381836040517fe450d38c000000000000000000000000000000000000000000000000000000008152600401620002e19392919062000ad8565b60405180910390fd5b8181036000808673ffffffffffffffffffffffffffffffffffffffff1673ffffffffffffffffffffffffffffffffffffffff16815260200190815260200160002081905550505b600073ffffffffffffffffffffffffffffffffffffffff168273ffffffffffffffffffffffffffffffffffffffff16036200037c5780600260008282540392505081905550620003c9565b806000808473ffffffffffffffffffffffffffffffffffffffff1673ffffffffffffffffffffffffffffffffffffffff168152602001908152602001600020600082825401925050819055505b8173ffffffffffffffffffffffffffffffffffffffff168373ffffffffffffffffffffffffffffffffffffffff167fddf252ad1be2c89b69c2b068fc378daa952ba7f163c4a11628f55a4df523b3ef8360405162000428919062000b15565b60405180910390a3505050565b600080fd5b6000819050919050565b6200044f816200043a565b81146200045b57600080fd5b50565b6000815190506200046f8162000444565b92915050565b6000602082840312156200048e576200048d62000435565b5b60006200049e848285016200045e565b91505092915050565b600081519050919050565b7f4e487b7100000000000000000000000000000000000000000000000000000000600052604160045260246000fd5b7f4e487b7100000000000000000000000000000000000000000000000000000000600052602260045260246000fd5b600060028204905060018216806200052957607f821691505b6020821081036200053f576200053e620004e1565b5b50919050565b60008190508160005260206000209050919050565b60006020601f8301049050919050565b600082821b905092915050565b600060088302620005a97fffffffffffffffffffffffffffffffffffffffffffffffffffffffffffffffff826200056a565b620005b586836200056a565b95508019841693508086168417925050509392505050565b6000819050919050565b6000620005f8620005f2620005ec846200043a565b620005cd565b6200043a565b9050919050565b6000819050919050565b6200061483620005d7565b6200062c6200062382620005ff565b84845462000577565b825550505050565b600090565b6200064362000634565b6200065081848462000609565b505050565b5b8181101562000678576200066c60008262000639565b60018101905062000656565b5050565b601f821115620006c757620006918162000545565b6200069c846200055a565b81016020851015620006ac578190505b620006c4620006bb856200055a565b83018262000655565b50505b505050565b600082821c905092915050565b6000620006ec60001984600802620006cc565b1980831691505092915050565b6000620007078383620006d9565b9150826002028217905092915050565b6200072282620004a7565b67ffffffffffffffff8111156200073e576200073d620004b2565b5b6200074a825462000510565b620007578282856200067c565b600060209050601f8311600181146200078f57600084156200077a578287015190505b620007868582620006f9565b865550620007f6565b601f1984166200079f8662000545565b60005b82811015620007c957848901518255600182019150602085019450602081019050620007a2565b86831015620007e95784890151620007e5601f891682620006d9565b8355505b6001600288020188555050505b505050505050565b7f4e487b7100000000000000000000000000000000000000000000000000000000600052601160045260246000fd5b60008160011c9050919050565b6000808291508390505b60018511156200088c57808604811115620008645762000863620007fe565b5b6001851615620008745780820291505b808102905062000884856200082d565b945062000844565b94509492505050565b600082620008a757600190506200097a565b81620008b757600090506200097a565b8160018114620008d05760028114620008db5762000911565b60019150506200097a565b60ff841115620008f057620008ef620007fe565b5b8360020a9150848211156200090a5762000909620007fe565b5b506200097a565b5060208310610133831016604e8410600b84101617156200094b5782820a905083811115620009455762000944620007fe565b5b6200097a565b6200095a84848460016200083a565b92509050818404811115620009745762000973620007fe565b5b81810290505b9392505050565b600060ff82169050919050565b60006200099b826200043a565b9150620009a88362000981565b9250620009d77fffffffffffffffffffffffffffffffffffffffffffffffffffffffffffffffff848462000895565b905092915050565b6000620009ec826200043a565b9150620009f9836200043a565b925082820262000a09816200043a565b9150828204841483151762000a235762000a22620007fe565b5b5092915050565b600073ffffffffffffffffffffffffffffffffffffffff82169050919050565b600062000a578262000a2a565b9050919050565b62000a698162000a4a565b82525050565b600060208201905062000a86600083018462000a5e565b92915050565b600062000a99826200043a565b915062000aa6836200043a565b925082820190508082111562000ac15762000ac0620007fe565b5b92915050565b62000ad2816200043a565b82525050565b600060608201905062000aef600083018662000a5e565b62000afe602083018562000ac7565b62000b0d604083018462000ac7565b949350505050565b600060208201905062000b2c600083018462000ac7565b92915050565b61164e8062000b426000396000f3fe608060405234801561001057600080fd5b50600436106100ea5760003560e01c806370a082311161008c578063a9059cbb11610066578063a9059cbb14610261578063b544102014610291578063cc7242f6146102ad578063dd62ed3e146102c9576100ea565b806370a08231146101f55780638da5cb5b1461022557806395d89b4114610243576100ea565b806323b872dd116100c857806323b872dd1461015b578063313ce5671461018b5780635f515226146101a957806366a4fc5b146101d9576100ea565b806306fdde03146100ef578063095ea7b31461010d57806318160ddd1461013d575b600080fd5b6100f76102f9565b6040516101049190610e01565b60405180910390f35b61012760048036038101906101229190610ecb565b61038b565b6040516101349190610f26565b60405180910390f35b6101456103ae565b6040516101529190610f50565b60405180910390f35b61017560048036038101906101709190610f6b565b6103b8565b6040516101829190610f26565b60405180910390f35b6101936103e7565b6040516101a09190610fda565b60405180910390f35b6101c360048036038101906101be9190610ff5565b6103f0565b6040516101d09190610f50565b60405180910390f35b6101f360048036038101906101ee9190610ff5565b610402565b005b61020f600480360381019061020a9190610ff5565b61046a565b60405161021c9190610f50565b60405180910390f35b61022d6104b2565b60405161023a9190611031565b60405180910390f35b61024b6104d8565b6040516102589190610e01565b60405180910390f35b61027b60048036038101906102769190610ecb565b61056a565b6040516102889190610f26565b60405180910390f35b6102ab60048036038101906102a69190610ecb565b61058d565b005b6102c760048036038101906102c29190611181565b61063a565b005b6102e360048036038101906102de91906111f0565b61074c565b6040516102f09190610f50565b60405180910390f35b6060600380546103089061125f565b80601f01602080910402602001604051908101604052809291908181526020018280546103349061125f565b80156103815780601f1061035657610100808354040283529160200191610381565b820191906000526020600020905b81548152906001019060200180831161036457829003601f168201915b5050505050905090565b6000806103966107d3565b90506103a38185856107db565b600191505092915050565b6000600254905090565b6000806103c36107d3565b90506103d08582856107ed565b6103db858585610881565b60019150509392505050565b60006012905090565b60006103fb8261046a565b9050919050565b600061040c6103e7565b600a61041891906113f2565b600a610424919061143d565b905061046682826040518060400160405280600d81526020017f776174636865645f766964656f0000000000000000000000000000000000000081525061063a565b5050565b60008060008373ffffffffffffffffffffffffffffffffffffffff1673ffffffffffffffffffffffffffffffffffffffff168152602001908152602001600020549050919050565b600560009054906101000a900473ffffffffffffffffffffffffffffffffffffffff1681565b6060600480546104e79061125f565b80601f01602080910402602001604051908101604052809291908181526020018280546105139061125f565b80156105605780601f1061053557610100808354040283529160200191610560565b820191906000526020600020905b81548152906001019060200180831161054357829003601f168201915b5050505050905090565b6000806105756107d3565b9050610582818585610881565b600191505092915050565b60328110156105d1576040517f08c379a00000000000000000000000000000000000000000000000000000000081526004016105c8906114f1565b60405180910390fd5b60006105db6103e7565b600a6105e791906113f2565b60146105f3919061143d565b905061063583826040518060400160405280600b81526020017f7061737365645f7175697a00000000000000000000000000000000000000000081525061063a565b505050565b600560009054906101000a900473ffffffffffffffffffffffffffffffffffffffff1673ffffffffffffffffffffffffffffffffffffffff163373ffffffffffffffffffffffffffffffffffffffff16146106ca576040517f08c379a00000000000000000000000000000000000000000000000000000000081526004016106c19061155d565b60405180910390fd5b6106f7600560009054906101000a900473ffffffffffffffffffffffffffffffffffffffff168484610881565b8273ffffffffffffffffffffffffffffffffffffffff167f0e92dcc1c5be7a8f2fe4fefcb310d1fd1eb6fa58d25cae80b2c17a57c1c6d004838360405161073f92919061157d565b60405180910390a2505050565b6000600160008473ffffffffffffffffffffffffffffffffffffffff1673ffffffffffffffffffffffffffffffffffffffff16815260200190815260200160002060008373ffffffffffffffffffffffffffffffffffffffff1673ffffffffffffffffffffffffffffffffffffffff16815260200190815260200160002054905092915050565b600033905090565b6107e88383836001610975565b505050565b60006107f9848461074c565b90507fffffffffffffffffffffffffffffffffffffffffffffffffffffffffffffffff811461087b578181101561086b578281836040517ffb8f41b2000000000000000000000000000000000000000000000000000000008152600401610862939291906115ad565b60405180910390fd5b61087a84848484036000610975565b5b50505050565b600073ffffffffffffffffffffffffffffffffffffffff168373ffffffffffffffffffffffffffffffffffffffff16036108f35760006040517f96c6fd1e0000000000000000000000000000000000000000000000000000000081526004016108ea9190611031565b60405180910390fd5b600073ffffffffffffffffffffffffffffffffffffffff168273ffffffffffffffffffffffffffffffffffffffff16036109655760006040517fec442f0500000000000000000000000000000000000000000000000000000000815260040161095c9190611031565b60405180910390fd5b610970838383610b4c565b505050565b600073ffffffffffffffffffffffffffffffffffffffff168473ffffffffffffffffffffffffffffffffffffffff16036109e75760006040517fe602df050000000000000000000000000000000000000000000000000000000081526004016109de9190611031565b60405180910390fd5b600073ffffffffffffffffffffffffffffffffffffffff168373ffffffffffffffffffffffffffffffffffffffff1603610a595760006040517f94280d62000000000000000000000000000000000000000000000000000000008152600401610a509190611031565b60405180910390fd5b81600160008673ffffffffffffffffffffffffffffffffffffffff1673ffffffffffffffffffffffffffffffffffffffff16815260200190815260200160002060008573ffffffffffffffffffffffffffffffffffffffff1673ffffffffffffffffffffffffffffffffffffffff168152602001908152602001600020819055508015610b46578273ffffffffffffffffffffffffffffffffffffffff168473ffffffffffffffffffffffffffffffffffffffff167f8c5be1e5ebec7d5bd14f71427d1e84f3dd0314c0f7b2291e5b200ac8c7c3b92584604051610b3d9190610f50565b60405180910390a35b50505050565b600073ffffffffffffffffffffffffffffffffffffffff168373ffffffffffffffffffffffffffffffffffffffff1603610b9e578060026000828254610b9291906115e4565b92505081905550610c71565b60008060008573ffffffffffffffffffffffffffffffffffffffff1673ffffffffffffffffffffffffffffffffffffffff16815260200190815260200160002054905081811015610c2a578381836040517fe450d38c000000000000000000000000000000000000000000000000000000008152600401610c21939291906115ad565b60405180910390fd5b8181036000808673ffffffffffffffffffffffffffffffffffffffff1673ffffffffffffffffffffffffffffffffffffffff16815260200190815260200160002081905550505b600073ffffffffffffffffffffffffffffffffffffffff168273ffffffffffffffffffffffffffffffffffffffff1603610cba5780600260008282540392505081905550610d07565b806000808473ffffffffffffffffffffffffffffffffffffffff1673ffffffffffffffffffffffffffffffffffffffff168152602001908152602001600020600082825401925050819055505b8173ffffffffffffffffffffffffffffffffffffffff168373ffffffffffffffffffffffffffffffffffffffff167fddf252ad1be2c89b69c2b068fc378daa952ba7f163c4a11628f55a4df523b3ef83604051610d649190610f50565b60405180910390a3505050565b600081519050919050565b600082825260208201905092915050565b60005b83811015610dab578082015181840152602081019050610d90565b60008484015250505050565b6000601f19601f8301169050919050565b6000610dd382610d71565b610ddd8185610d7c565b9350610ded818560208601610d8d565b610df681610db7565b840191505092915050565b60006020820190508181036000830152610e1b8184610dc8565b905092915050565b6000604051905090565b600080fd5b600080fd5b600073ffffffffffffffffffffffffffffffffffffffff82169050919050565b6000610e6282610e37565b9050919050565b610e7281610e57565b8114610e7d57600080fd5b50565b600081359050610e8f81610e69565b92915050565b6000819050919050565b610ea881610e95565b8114610eb357600080fd5b50565b600081359050610ec581610e9f565b92915050565b60008060408385031215610ee257610ee1610e2d565b5b6000610ef085828601610e80565b9250506020610f0185828601610eb6565b9150509250929050565b60008115159050919050565b610f2081610f0b565b82525050565b6000602082019050610f3b6000830184610f17565b92915050565b610f4a81610e95565b82525050565b6000602082019050610f656000830184610f41565b92915050565b600080600060608486031215610f8457610f83610e2d565b5b6000610f9286828701610e80565b9350506020610fa386828701610e80565b9250506040610fb486828701610eb6565b9150509250925092565b600060ff82169050919050565b610fd481610fbe565b82525050565b6000602082019050610fef6000830184610fcb565b92915050565b60006020828403121561100b5761100a610e2d565b5b600061101984828501610e80565b91505092915050565b61102b81610e57565b82525050565b60006020820190506110466000830184611022565b92915050565b600080fd5b600080fd5b7f4e487b7100000000000000000000000000000000000000000000000000000000600052604160045260246000fd5b61108e82610db7565b810181811067ffffffffffffffff821117156110ad576110ac611056565b5b80604052505050565b60006110c0610e23565b90506110cc8282611085565b919050565b600067ffffffffffffffff8211156110ec576110eb611056565b5b6110f582610db7565b9050602081019050919050565b82818337600083830152505050565b600061112461111f846110d1565b6110b6565b9050828152602081018484840111156111405761113f611051565b5b61114b848285611102565b509392505050565b600082601f8301126111685761116761104c565b5b8135611178848260208601611111565b91505092915050565b60008060006060848603121561119a57611199610e2d565b5b60006111a886828701610e80565b93505060206111b986828701610eb6565b925050604084013567ffffffffffffffff8111156111da576111d9610e32565b5b6111e686828701611153565b9150509250925092565b6000806040838503121561120757611206610e2d565b5b600061121585828601610e80565b925050602061122685828601610e80565b9150509250929050565b7f4e487b7100000000000000000000000000000000000000000000000000000000600052602260045260246000fd5b6000600282049050600182168061127757607f821691505b60208210810361128a57611289611230565b5b50919050565b7f4e487b7100000000000000000000000000000000000000000000000000000000600052601160045260246000fd5b60008160011c9050919050565b6000808291508390505b6001851115611316578086048111156112f2576112f1611290565b5b60018516156113015780820291505b808102905061130f856112bf565b94506112d6565b94509492505050565b60008261132f57600190506113eb565b8161133d57600090506113eb565b8160018114611353576002811461135d5761138c565b60019150506113eb565b60ff84111561136f5761136e611290565b5b8360020a91508482111561138657611385611290565b5b506113eb565b5060208310610133831016604e8410600b84101617156113c15782820a9050838111156113bc576113bb611290565b5b6113eb565b6113ce84848460016112cc565b925090508184048111156113e5576113e4611290565b5b81810290505b9392505050565b60006113fd82610e95565b915061140883610fbe565b92506114357fffffffffffffffffffffffffffffffffffffffffffffffffffffffffffffffff848461131f565b905092915050565b600061144882610e95565b915061145383610e95565b925082820261146181610e95565b9150828204841483151761147857611477611290565b5b5092915050565b7f53636f7265206d757374206265206174206c6561737420353020746f20636c6160008201527f696d20746f6b656e730000000000000000000000000000000000000000000000602082015250565b60006114db602983610d7c565b91506114e68261147f565b604082019050919050565b6000602082019050818103600083015261150a816114ce565b9050919050565b7f4f6e6c7920746865206f776e65722063616e2073657420726577617264730000600082015250565b6000611547601e83610d7c565b915061155282611511565b602082019050919050565b600060208201905081810360008301526115768161153a565b9050919050565b60006040820190506115926000830185610f41565b81810360208301526115a48184610dc8565b90509392505050565b60006060820190506115c26000830186611022565b6115cf6020830185610f41565b6115dc6040830184610f41565b949350505050565b60006115ef82610e95565b91506115fa83610e95565b925082820190508082111561161257611611611290565b5b9291505056fea2646970667358221220cc81176898b142a7ca5111ddb81a2d96090af1635944ddd1e074dd02946d4d8564736f6c63430008140033",
  "linkReferences": {},
  "deployedLinkReferences": {}
}